:020000041000EA
:1000000000B5324B212058609868022188439860DF
:10001000D860186158612E4B002199600221596106
:100020000121F02299502B49196001219960352056
:1000300000F044F80222904214D00621196600F024
:1000400034F8196E01211966002018661A6600F04E
:100050002CF8196E196E196E052000F02FF8012189
:100060000842F9D1002199601B49196000215960AB
:100070001A491B48016001219960EB211966A021F2
:10008000196600F012F800219960164914480160C1
:100090000121996001BC002800D000471248134993
:1000A000086003C880F30888084703B5996A0420EC
:1000B0000142FBD001200142F8D103BD02B5186610
:1000C0001866FFF7F2FF186E186E02BD00000240BE
:1000D000000000180000070000035F00212200005C
:1000E000F4000018222000A00001001008ED00E03C
:1000F00000000000000000000000000074B24E7A12
:1001000000200420F7010010C3010010C5010010F9
:10011000C1010010C1010010C1010010C101001097
:10012000C1010010C1010010C1010010C701001081
:10013000C1010010C1010010C9010010CB01001065
:10014000CD010010CD010010CD010010CD01001037
:10015000CD010010CD010010CD010010CD01001027
:10016000CD010010CD010010CD010010CD01001017
:10017000CD010010CD010010CD010010CD01001007
:10018000CD010010CD010010CD010010CD010010F7
:10019000CD010010CD010010CD010010CD010010E7
:1001A000CD010010CD010010CD010010CD010010D7
:1001B000CD010010CD010010CD010010CD010010C7
:1001C00000BE00BE00BE00BE00BE00BEEFF3058054
:1001D000103800BEF2EB88717CF20610A4F2061013
:1001E0003402001090A31AE700201F49086006C8D7
:1001F00081F3088810471D48006800282FD10DA4FE
:100200000ECC002902D000F012F8F9E71849194A7B
:10021000002000E001C19142FCD1174988471749ED
:1002200088471749884700BEFDE701C901C29A42C5
:10023000FBD37047A4F20610C00000200016002077
:10024000E40707100000042000000420E407071062
:10025000001004200010042000000000704709482E
:1002600001F04AF90047000008ED00E0000000D06E
:10027000201600204CDA00200D350110E508001092
:10028000653601105756000006005250ABB360535C
:10029000E049031006005250861C0302F049031087
:1002A000060052505422A29DFC49031005005250F2
:1002B000DE65F468E4070710F8B5C046064807494C
:1002C000091A8B10C90FC91810B5491003D0044B77
:1002D000002B00D0984710BD00160020001600200B
:1002E00000000000054B10B5002B03D00449054861
:1002F00000E000BFFFF7E2FF10BDC04600000000B5
:100300004CD80020202B031010B5024815F07AFBC2
:1003100010BDC046202B031010B5024815F072FB2B
:1003200010BDC0463C2B031010B5024815F06AFB07
:1003300010BDC046602B0310080010B5002909D07D
:100340000B6813600EF052FA044B0100180015F010
:1003500059FB10BD024815F063FAFAE7802B031031
:10036000942B031010B50949141E06D1012000F08A
:100370007FFA074815F054FA10BD002000F078FA13
:100380002100044815F03EFBF6E7C046F44903108F
:10039000AC2B0310BC2B0310802310B55B001400A2
:1003A000C0B09A4212D8684615F06CF900236A462C
:1003B0006846135531F0F2FF04006946054815F010
:1003C00021FB200000F076F940B010BD024815F086
:1003D00027FAF9E7F42B0310D82B031070B50400AB
:1003E0000B4D0C48290015F00DFB230021002800BF
:1003F000094A03F097FE053005D070BD0EF01CFCD5
:100400000A2002F04FFA2368002BF7D0F5E7C04628
:100410000C2C03101C2C031039030010F0B5DE4621
:10042000454657464E46E0B5C9B0050031F036F8AE
:10043000041E686000D199E01C22002109A815F073
:100440001BF94C4B4C4F984608AB200001932900F8
:1004500043464A4A0095089731F028F8041E06D012
:1004600049B0F0BCBB46B246A946A046F0BD002349
:10047000434A4449686831F005F801226868424BF4
:10048000019242490022009430F082FE404B414EDE
:100490009B46414B0493414B0593414B9A46414B3C
:1004A0000693414B0793414B99460EF0C5FB686894
:1004B00031F0CAFB00283DD002F0E0FA00294FD00D
:1004C000FA220023920014F029FD0400FA22336876
:1004D0009200E31A9342E8D300F01EF90028E4D01A
:1004E0005B461A68802193009B18049ADB009446AF
:1004F000524612686344346001925A6A490000927D
:1005000008A8059A14F05AFC08A831F0ABFB079A2A
:1005100083B26868029200220699019200920395C4
:1005200008AA30F0A3FC0EF087FB686831F08CFB62
:100530000028C1D1484615F073F9FA2002F0B2F94B
:100540001C22002109A815F097F808AB686829005B
:1005500001930A4A43460095089730F0A7FFA4E7A5
:10056000FA21890014F09CFC0400AFE7104815F054
:1005700057F975E765030010A42C03105B07000012
:10058000990300102903001019030010CC2C03104C
:10059000F0D90020C03D0020A00E00203C2C03100C
:1005A00014DA00208C2C031009030010E82C03102F
:1005B000AC2C031070B5040002F060FA00292FD0B3
:1005C000FA220023920014F0A9FC184B1A6A9442F4
:1005D0000FD1AF26164A00251168B600411AB14264
:1005E00007D9AB00D0500122124B1D60124B1A707C
:1005F00070BD9A6C944207D1AF260D4A012551680F
:10060000B600411AB142ECD81B6FA342F0D1AF2122
:10061000074A89009368C31A8B42E9D90225E0E7AB
:10062000FA21890014F03CFCCFE7C046A00E002060
:10063000B43D0020F0D900203BDA002010B50B209B
:1006400001F018FBD024802324061B0163620D20D7
:1006500001F010FB80239B0163620C2001F00AFB78
:1006600080235B01636210BD7823F0B5C646D025B8
:100670009846012600B50D4C0D4FA0442D06206A6A
:1006800001F0F8FA3300206A002283400121AB62B6
:1006900001F00CFA206A3B0001220421283401F009
:1006A00055FA4445EBD180BCB846F0BDA00E002001
:1006B000B5050010134B01005A6A10B5824207D0ED
:1006C000DA6C904218D05A6F0220914201D010BDCE
:1006D000002082001218D2009B189A7F002A0DD0A9
:1006E00000209877084B1A68013A1A60074B187077
:1006F000074815F087F9EAE70120EAE7054815F011
:1007000081F9E4E7A00E002014DA00203BDA002093
:10071000242D0310F82C03101C49F8B50C78002C7C
:100720000AD01B4B18681B4B82001218D2009B1872
:100730009A7F002A02D000242000F8BD164D0A70CE
:10074000286804210130286001250A209D7701F0E6
:1007500095F9124B124A96205A67124B124F1A689B
:10076000124B134E53401B04124A1B0C13602A00F9
:100770003B6840009A43326002F094F83B680021E5
:100780001D400A20356001F079F9D5E73BDA0020F9
:10079000F0D90020A00E002014DA0020000005404F
:1007A00075AB00007000054064000540BA550000BC
:1007B0006410054070100540F8B504000D000EF0FF
:1007C00047FA002844D10EF0D3F920002900234B2A
:1007D000234A0EF0DBF9041E1DD1224815F020F843
:1007E000D026802336061B01B36180278023032592
:1007F0007F019B01B761B361FA207761400002F08D
:1008000051F8FA20B7614000013D02F04BF8002D8D
:10081000F2D12000F8BD2100134815F0F3F8D025DF
:1008200080232D061B01AB618026802305245B01FC
:10083000B601AB61AE61C8206E6102F033F8013CD5
:10084000C820AE6102F02EF8002CF4D10234E0E7AB
:10085000064814F0E5FF0124DBE7C046204E000007
:10086000040040006C2D03108C2D0310502D03103C
:1008700070B58022D02412012406A2618026802235
:10088000B6015201A2610B000525A66100280BD11B
:10089000C820666102F006F8013DC820A66102F09A
:1008A00001F8002DF4D170BD18000D4931F06AFE39
:1008B000431E984180235B019C4603264542ED0A76
:1008C000ED026544FA206561400001F0EBFFFA207B
:1008D000A5614000013E01F0E5FF002EF2D1E2E704
:1008E000B42D031070B515F099F8FFF7A7FEFFF7C8
:1008F000BBFE0D490D48FFF75FFF041E01D020002D
:1009000070BD1421012014F099FE051E08D02800A6
:10091000FFF764FD2800FFF781FD0EF0CDF9EEE74B
:10092000034814F07DFFF2E7BC2D0310C82D03101F
:10093000D42D031010B509F03BFF10BDF8B501230D
:100940000B72040009F068FF0500431C0BD1104B2B
:10095000186859680F4B22689860D9601900200008
:1009600052699047F8BD02F089F8FA2206000F009C
:10097000002328000021920014F000FE802380193B
:1009800079411B069942E5D3012003494042E1E742
:10099000C85D0310180F0020FFFFFF7F70B5094DE1
:1009A00004002B78002B08D00123074920000B728C
:1009B0002368DB699847012070BD02F003FC012326
:1009C0002B70F1E738DA0020300F002010B504005A
:1009D000036804499B6998472368200002491B6A01
:1009E000984710BD180F0020300F002000207047DE
:1009F0007047C04610B502F041F8002905D0FA2230
:100A00000023920014F08AFA10BDFA21890014F034
:100A100047FAF9E783680830002B04D107E0180093
:100A20001B68002B03D09942F9D1002003E000237A
:100A3000016001200B6070478368002B08D08B4257
:100A400002D107E0994206D018001B68002BF9D1AB
:100A50000020704708300B6803600120F9E7C046AA
:100A600043680430002B04D107E018001B68002BFA
:100A700003D09942F9D1002003E000230160012056
:100A80000B6070474368002B08D08B4202D107E00F
:100A9000994206D018001B68002BF9D1002070473E
:100AA00004300B6803600120F9E7C046F0B55746F3
:100AB000DE464646C0B53E4B82B05C681B6800937C
:100AC000019483688246002B2CD0082353449B4614
:100AD00001F0D4FF53469B6804000D005F46002BD5
:100AE00020D000221E0094469846B268F368200089
:100AF0002900801A9941002902DB14001D00BC4620
:100B000037003668002EF0D162464346002A48D0AE
:100B1000116850460B6813604B68984753469B68B2
:100B2000002BD5D153465C68002C29D000255646B1
:100B3000237A002B31D0210063682572300098475A
:100B40002468002CF4D1B168B246002918D0009C6A
:100B5000019D0E0003E004000D00002E0ED03300B6
:100B600022009868D9682B00121A8B413668002B36
:100B7000F1DCF2D1002AEED1002EF0D100940195E3
:100B8000009B019C5246180021001361546102B081
:100B9000E0BCBB46B246A846F0BD2468002CC7D1D5
:100BA000D1E7190053465C68002CBFD1CFE7C0469F
:100BB000C85D0310024B18688007C00F7047C0461D
:100BC00000C0064070B50F4C0F4D104A24184D411F
:100BD000A900A00F0843A90F69400D4B604014F015
:100BE000CDFC4A01C30E1343CA0E58405140094B75
:100BF000094A14F0C3FC4A00C30F1343CA0F5840FC
:100C0000514070BD157C4A7FB979379EB9E5E41C27
:100C10006D4758BFBB49D094EB113113F0B5046850
:100C20004568060023002A00C6468068F168034331
:100C30000A4300B5134304D101F020FF03000B4326
:100C4000FAD02A06230A6040270613432A0A3A43A9
:100C5000070CBC4669404B40984663460F041F434F
:100C6000424003045A4043467B4032607360C20EE8
:100C70004B011343C90E40010843B360A10FAB0001
:100C80000B43A20012196B41F060D901500E0843CA
:100C9000D201590E11430C0005004B0FC10019433E
:100CA000E0000019694180BCB846F0BDF0B5DE46F1
:100CB00057464E464546E0B5BC4991B00891097883
:100CC000002900D1E5E00CAB9846B94BB94C029332
:100CD000B94BBA4E059310220599404614F0D2FC48
:100CE000B74B06931B78DBB2079301F0C7FEFFF703
:100CF00069FF0C9B4340089343465B684B40099354
:100D0000B04B9B69DB0433D5AF4BDA6BE023134068
:100D1000402B2DD0EFF305839A46AC4B27689946BC
:100D200000239B463300564665689A4638002900E2
:100D3000002E1AD001F0E0FEEFF3108272B64B469F
:100D40001B68002BFBD0BFF35F8F2368BB4212D020
:100D5000BFF35F8F4B465946196082F310882768AE
:100D6000656838002900002EE4D101F039FDE3E781
:100D700012F094FCCEE76368AB42E9D1914B1500C9
:100D8000DF6901F07BFE0A220023801859410B0025
:100D900080215646020009068B4202D301228C4B69
:100DA000524201200CC43268736892185B4138408B
:100DB000104300240092019330607360BFF35F8F93
:100DC000824A146085F310880199FFF7FBFE4346C1
:100DD0009B68424658404346DB6890604B40D36076
:100DE0007C4A029B94461B787B4ADB0063449868EC
:100DF00090424CD00021FFF7E5FE089B43400C9346
:100E0000099B4B40190043465960EFF3108572B6B9
:100E10006E4A1368002BFCD0BFF35F8F069B079AC6
:100E20001B78934214D005980C9A036841685A4085
:100E300043465B680C9242464B405360926883681D
:100E4000C1685A404346DB684B4041468A60CB60EC
:100E50004046FFF7E3FE102206000C0005984146CD
:100E600014F010FC069A13780133DBB21370BFF351
:100E70005F8F0022554B1A6085F3108830002100E7
:100E800011B0F0BCBB46B246A946A046F0BD9C607E
:100E9000B0E7524D524CAC4620686168514DA246B5
:100EA000A84600920193850D8F0286022F433400DD
:100EB0003D0024184D41A30E9946AB0101934B46CA
:100EC000019A1A43A30100930192009C019D241AE8
:100ED0008D412000644608CC290002930023A446DB
:100EE0000393029C039D00196941C445DBD154461C
:100EF00020606160FFF766FE0CAB98460C9B434098
:100F0000029343465B680AA84B40059300F02CF916
:100F10000A980B99FFF756FE43469B684340069399
:100F20004346DB684B400793264B9B69DB0400D4A8
:100F3000F4E0254BDA6BE0231340402B00D1EDE0C9
:100F4000EFF3058300249A46002340250093019483
:100F50001E4B2E0099465546C346164C0023B046FC
:100F600027682E0065689A4638002900002E1AD09E
:100F700001F0C2FDEFF3108272B64B461B68002BE6
:100F8000FBD0BFF35F8F2368BB422DD0BFF35F8FD1
:100F90004B465146196082F310882768656838000F
:100FA0002900002EE4D101F01BFCE3E743DA002026
:100FB00031DA0020A81700201016002000160020AB
:100FC00032DA00200000064000800040300100D0EE
:100FD000FFFFFF7F00000340FFFFFF00001C042015
:100FE00008160020002004206368AB42CED13500F3
:100FF00046469046009A019B1000190080185941FE
:101000004B4BDA690123134003430093019101F034
:1010100035FD0A220023801859410B00802102006F
:1010200009068B4202D30122424B52422260636086
:10103000012E5ED10098019935003F4E4746306041
:101040007160D846BFF35F8F3C4B994600234A46F8
:10105000136087F31088FFF7B5FD029B43400C93A4
:10106000059B4B4019005B46596001F007FDFFF7F7
:10107000A9FD069B434018005B469860079B4B40C8
:1010800019005B46D960EFF3108772B64B461B68B8
:10109000002BFBD0BFF35F8F089B1B78002B31D157
:1010A000274BDA681F2A3CD05A691F2A3AD0DA69DE
:1010B0001F2A39D05B6A03251F2B33D012F0EEFABA
:1010C000FF25FF231F4AED0013701F4B02929C4621
:1010D000052365446B604046FFF7A0FD1B4B1022C3
:1010E00018004146059314F0CDFA0123089A1370B5
:1010F0000CE0BFF35F8F00234A46136088F310882B
:10110000013E2BE70F4B0293104B0593BFF35F8F0C
:1011100000220A4B1A6087F31088DCE512F0BEFA51
:101120000EE70025EBB2CDE70225EBB2CAE7C046D9
:1011300000000640FFFFFF7F00160020300100D0B6
:101140000000034031DA00200800034010160020A0
:1011500010B5FFF7ABFD10BD10B5024800F0E0F888
:1011600010BDC04690D8002010B50822014914F0E7
:1011700089FA10BD90D8002030B54B1E012900D14E
:10118000A7E0664A11780D092C0030349F2900D958
:10119000A2E00470012B00D1BEE00F2114782140A1
:1011A0000C003034092900D998E04470022B00D19A
:1011B000B2E054782509290030319F2C00D990E005
:1011C0008170032B00D1A7E00F2121400C003034A7
:1011D000092900D987E0C470042B00D19CE09478E1
:1011E0002509290030319F2C00D97FE00171052BA2
:1011F00000D191E00F2121400C003034092900D9A1
:1012000076E04471062B00D186E0D47825092900C8
:1012100030319F2C00D96EE08171072B00D17BE02B
:101220000F2121400C003034092966D8C471082BE5
:1012300000D171E014792509290030319F2C5FD845
:101240000172092B68D00F2121400C00303409298C
:1012500058D844720A2B5FD05479250929003031BF
:101260009F2C52D881720B2B56D00F2121400C009D
:10127000303409294BD8C4720C2B4DD094792509F0
:10128000290030319F2C00D9073101730D2B43D039
:101290000F2121400C003034092901D937310C00CD
:1012A00044730E2B38D0D1790C09220030329F299B
:1012B00000D9073282730F2B2ED00F220A40110063
:1012C0003731092A01D830321100C173102B23D0D5
:1012D00010300023037030BD07345AE737310C005B
:1012E00063E707316CE737310C0074E707317DE7BE
:1012F00037310C0085E707318EE737310C0095E771
:1013000007319DE737310C00A3E70731AAE73731F2
:101310000C00C4720C2BB1D1C018DAE790D80020B1
:1013200010B588B004000D220021684614F0A4F91D
:101330000D22002104A814F09FF94B236A46684649
:10134000137004A90D2231F083FB1521082220001F
:10135000694414F097F908B010BDC046EFF310804F
:1013600072B6034A1368002BFCD0BFF35F8F70473F
:101370002C0100D0BFF35F8F0022024B1A6080F374
:10138000108870472C0100D070B5EFF3108C72B646
:101390000D4D2B68002BFCD0BFF35F8F0724CB08CB
:1013A000C618C05C01230C40A3401C00044003424B
:1013B00007D118433070BFF35F8F2C608CF3108817
:1013C00070BD100012F052F92C0100D0F8B547465C
:1013D000CE46884680B5EFF3108C72B6214D2C684E
:1013E000002CFCD0BFF35F8F9A422CD8D40807277B
:1013F000055D061901241740BC402C421FD007216F
:101400000127894609E0D408055D06194C463900D4
:101410001440A1400C00294211D001329342F2D273
:1014200001204042BFF35F8F00220E4B1A608CF305
:10143000108800280FDBC0BCB946B046F8BD254374
:1014400010003570EEE7BFF35F8F00232B608CF345
:101450001088012040424346002BECD0089812F03F
:1014600005F9C0462C0100D030B5EFF3108C72B6F0
:101470000A4C2368002BFCD0BFF35F8F07230122A7
:101480000B409A40CD08435D93434355BFF35F8FB4
:10149000002323608CF3108830BDC0462C0100D09F
:1014A0000021044B044ABFF35F8F02C39342FAD179
:1014B0007047C046000100D0800100D0044A107877
:1014C000431CDBB2172B00D9102313707047C046A2
:1014D000400F002010B5064B064C82B0010000936F
:1014E00018221F232000FFF771FF02B010BDC04675
:1014F000F02D03109C2A0020142310B50100188839
:1015000004331B88984710BD162310B501001888B6
:1015100002331B88984710BDF8B54746CE4680B5C4
:101520000F1E19D014239946043304000025012608
:1015300098464B461888434621681B88984701C443
:10154000431E9841013540420640AF42F1D1300080
:10155000C0BCB946B046F8BD0126F8E710B50C206E
:1015600082B001F0C5FDFFF725FB002810D08B4BA2
:101570008B488B498B4A186059609860D960186114
:1015800059619861D961186259625A6202B010BDFE
:10159000854CA06701F002FE0122844B1A60636C47
:1015A000012BFCD10322824B1A607F4A936B012BE3
:1015B000FCD1013301217F4A7F480093043301F0BD
:1015C00045FD05237D4A009301217D4801F03EFD44
:1015D0007C4B5A68FF2A02D8802252005A6080222F
:1015E000734B6E4C12011A602169002907D06069A3
:1015F00013F056FC013043001B18033BFDD2E022E0
:10160000704B714819680A40026002221968514003
:1016100001320A40042102609A681142FCD0802104
:101620006A4A09011160802252005A60684B2361A6
:10163000684B5968FF2900D85A60032201215B4B8F
:101640001A60644A93681942FCD0E0231068034092
:1016500061480360126803234A40022113405D4A37
:10166000036093681942FCD080215C4B090119602A
:1016700080215B4B4900516063615A4B5A68FF2AD5
:1016800000D859608022584B12011A60E169002984
:1016900007D0606913F004FC013043001B18033BC2
:1016A000FDD2E0234F4A11680B4050490B60802166
:1016B0004F4B090119608021394B49005160E361AA
:1016C0004C4B5A68FF2A00D8596080224A4B1201BD
:1016D0001A60216A002907D0606913F0E1FB01302C
:1016E00043001B18033BFDD2E023424A11680B4024
:1016F00042490B608021424B0901196080235B0045
:1017000053608022264BD20223623E4B596891429D
:1017100000D25A6080223C4B12011A60616A002993
:1017200007D0606913F0BCFB013043001B18033B7A
:10173000FDD2E023334A11680B4034490B6080210D
:10174000334B090119608023DB025360154B636240
:10175000304B5A68FF2A02D8802252005A608022F9
:101760002D4B12011A60A169002907D0606913F09E
:1017700097FB013043001B18033BFDD2E023254AB1
:1017800011680B4025490B608021254B0901196028
:1017900080235B005360124BA361F7E648160020DC
:1017A000006CDC021BB70000008000403CB0004031
:1017B00030B00040002F685900800240008C8647FE
:1017C00000C00240308000403090004030A0004017
:1017D000001BB7003C8000403C9000403CA0004013
:1017E000405973075480004054B00040549000406A
:1017F00054A000406080004060B000406090004015
:1018000060A000406C8000406CB000406C900040D4
:101810006CA000404880004048B000404890004024
:1018200048A00040014B8000C05870474816002077
:10183000D0231B061B688D4A9900F0B54E46894699
:1018400051585A4253412F2257464546DE465B4285
:1018500093439846864BE0B59C4683B000270191A0
:10186000E044002935D0834B0F269B464246FB08B7
:1018700008339B009C5801233D009A460837002CF2
:101880001ED031002140264214D05B464A469A5869
:101890005346AB401A420DD1072208002A4092005D
:1018A00090400200EB0874483C339B001A5028001B
:1018B000019B984724090135002C01D0BD42E0D39B
:1018C000202FD3D103B0F0BCBB46B246A946A046F8
:1018D000F0BD684B00210F229B460124CD082B0050
:1018E000404608339B001B5808000831002B00D1EC
:1018F0009DE017001F40BC461A420BD05F464E4683
:10190000BE59270087403E4204D166465A4F3C35B7
:10191000AD00EE511D0900D189E017002F402A4289
:1019200011D02600451CAE400195B4465D464E469A
:10193000AE5965462E4206D1019D4F4EED083C350D
:101940003F01AD00AF511D0A71D017002F402A4250
:1019500011D02600851CAE400195B4465D464E462A
:10196000AE5965462E4206D1019D434EED083C35E9
:101970003F02AD00AF511D0B59D017002F402A4236
:101980000AD02600C51CAE400195B4465D464E46C1
:10199000AE5965462E424ED01D0C48D017002F4040
:1019A000BC462A4209D00126071DBE40B2464E461B
:1019B000304DAD595646354245D01D0D37D0160035
:1019C0002E40B4462A4209D00126471DBE40B246E9
:1019D0004E46284DAD59564635423ED01D0E26D0B6
:1019E00016002E40B4462A4210D00126871DBE4064
:1019F000B2464E461F4DAD595646354206D1664653
:101A0000FD083C3537061C4EAD00AF511B0F0730AB
:101A1000002B0CD04D465E467759250085402F425D
:101A200005D1C008144D3C301B07800043512029CC
:101A300000D053E746E7019D0F4EED083C353F03CC
:101A4000AD00AF51A8E765462D04AC466646FF08D9
:101A50003C37BD00084FEE51AFE76646FD083C3508
:101A60003705054EAD00AF51B8E7C046842A0020C7
:101A7000304101407CD8002000400140094A10B5A7
:101A800094464024830063441A68C0006240803456
:101A900014408022520113431C60034B9C46604457
:101AA000416010BD04C0014000400140074B800070
:101AB0009C4660440368C90092000A435A400C23C4
:101AC0001A4080235B0103431A60704704C0014041
:101AD000084B80009C466044002905D080230222E8
:101AE0009B0103431A607047C02302229B010343FA
:101AF0001A60F8E704C00140D0231B061B6830B50C
:101B00000500584243412F205B4283430D48EC08B7
:101B10008446072028408000814020000A4D3C3048
:101B200063448000A40041511B19002A04D0802284
:101B300092011343196030BDC02292011343196012
:101B4000F9E7C0463041014000400140F8B51D00B2
:101B5000D0231B061C680600604244412F206442CB
:101B600084432748F708844607203040800081409E
:101B70003800244E3C3064448000BF008151E41999
:101B8000002A11D080229201224311601C681E4E4F
:101B9000A400A359002B15D0002D25D0A55101215B
:101BA0000D2000F085F8F8BDC0229201224311609B
:101BB0001C68154EA400A359002B0CD0002D18D082
:101BC000A551F0E7002DEAD000220D200F49A551C4
:101BD00000F0D0F8E3E7002DE5D000220D200B49FE
:101BE000A55100F0C7F8DEE70D20084900F0BCF968
:101BF000D4E70D20054900F0B7F9A551D3E7C04659
:101C00003041014000400140842A0020311800107A
:101C1000D023F0B5C6461B0698461B680C4F9B00A8
:101C20001600FA5804000D0000B5104209D1290031
:101C300014430D203200FC5000F09CF880BCB846E4
:101C4000F0BD11F02BFD43461B689B00FA58EEE7F0
:101C50007CD8002010B504000D2000F085F9D023B9
:101C60001B061B6802499B005A58A2435A5010BDDC
:101C70007CD800200123D022834012069362936116
:101C8000094A40219446830063441A68C0004A40D0
:101C9000803111408022520113431960034B9C464E
:101CA000052360444360704704C001400040014088
:101CB00001238340002904D0034A1360034A1360C0
:101CC0007047034A1360FBE780E200E000E100E0B8
:101CD00080E100E001238340014A13607047C04661
:101CE00000E200E0084B10309B688000C358002BD6
:101CF00007D0064A00209B1A2F229A424041C0B2C8
:101D000070470020FCE7C04600ED00E0440F0020D3
:101D1000024B10309B688000C058704700ED00E017
:101D200070B50D00EFF3108672B60F4A1368002BE2
:101D3000FCD0BFF35F8F0D4B10309B6884001B59A4
:101D40000B4A934203D09D4201D011F0A7FC074BF0
:101D50009B681D51BFF35F8FBFF35F8F0022024B63
:101D60001A6086F3108870BD240100D000ED00E0F9
:101D7000CD010010F0B557464E46DE464546E0B56B
:101D800085B0060000911700EFF3108B72B66A4A17
:101D90001368002BFCD0BFF35F8F0025674B5D57A6
:101DA0009A46002D00DAA9E06B00654C01935B199F
:101DB0009B009846A146C1444B4652469B7910363B
:101DC0001370604BB6009B6899590B1B2F2B33D9AE
:101DD0005D4B994200D0ACE0019B42469C465B4B78
:101DE0006544AD0063535A4B0232A218043B9B1A60
:101DF0001B05584A5B0D651913436B80564B012137
:101E0000AB80FF23AB71009BEF71AB604B460B4384
:101E100019004C4B9B689951BFF35F8FBFF35F8FE5
:101E20000022454B1A608BF3108805B0F0BCBB460E
:101E3000B246A946A046F0BD01200A008243D379EC
:101E40008C46BB4231D84546130044491B1B5B41BD
:101E50005943090D3D4B63533D4B02356519043B16
:101E60005B1B1B053B4D5B0D2B43AA464D466B8010
:101E70000425AC465546E044131F44441B1B1B0578
:101E80005B0D1D434B46997100999D8099604946B1
:101E9000DF71334B01431360BBE75800C01880006B
:101EA0002018C179B9422FD902000623D356002B3E
:101EB000F3DA02932B4B61460393131D9A460423D6
:101EC0005B429C46E14450464B461B1A1B055B0D8A
:101ED0009C46204B95719846634640460343938049
:101EE000019B5A199200039BA418A380029B1C4AD1
:101EF000A371009B2260E771A3608AE711F0CEFB1B
:101F0000002553465D574FE7908802934005131D07
:101F10009A46031561469C464046D44463460430C5
:101F20002018181AE0230005400D1B0218430390E7
:101F3000C5E711F0B3FB4FE7240100D03CDA0020E5
:101F4000440F002000ED00E0CD01001000A1FFFFD4
:101F5000740F002000E0FFFF01BDFFFFAAAA0000F0
:101F60000148804701BD0000F0B5DE4657464E46A9
:101F70004546E0B50C0083B0EFF3108872B65D4AB9
:101F80001368002BFCD0BFF35F8F5B4B5B499A68F3
:101F9000030010339F00D5598D4239D0A5424AD055
:101FA000574EAA1B2F2A33D80122924682409146CF
:101FB0004846544A1268104001904846524A106000
:101FC000BFF35F8FEFF305829346002A35D093422B
:101FD00001D011F063FB2A0053469A439068844273
:101FE00008D175E04B005B189B00F3189868A0427D
:101FF00034D01A00062151560029F3DA844253D016
:10200000019B002B26D04A46404B1A603D4B1A607C
:10201000394B9B68DD51BFF35F8FBFF35F8F0022A9
:10202000344B1A6088F3108803B0F0BCBB46B2464C
:10203000A946A046F0BD0D00EAE72A0053469A43A0
:1020400090688442D6D1062010561300002809DA81
:102050000D0031E04A462C4B1A60D9E7062018568D
:10206000002822DB42001118890074188A46A168F2
:102070009960E179D971062161569971002925DBB2
:10208000A488F11A6405241554440919E0240905AB
:10209000490D24022143998013181D4A9B00117891
:1020A000F31899711070ABE713005946002914D149
:1020B000FF3191711749918015490A789A71164A32
:1020C0009B1B5B415A43120D0A7099E71349E2E7E3
:1020D0000620105613000028C4DA114A1149D21AFA
:1020E000083A5002400D014399800F4952080A43B3
:1020F000DA8085E7240100D000ED00E0CD0100107A
:10210000440F002000E100E080E100E080E200E018
:102110003CDA002001BDFFFFAAAA000001BD0000BB
:102120007E0F002000F0FFFF00F8FFFF70B5EFF317
:10213000058101240443EFF3108C72B6214A136821
:10214000002BFCD0BFF35F8F1F4B05001F4AED1A19
:102150006D416A43120D1E4D8900AE6852B2765829
:10216000A6421CD00621595691421CD01221595624
:10217000914222D01E215956914220D02A215956EF
:102180000324914210D0134B19781A708171BFF358
:102190005F8F00220B4B1A608CF3108870BDAB6808
:1021A0000D4C5C50EFE700246100091989005B18B1
:1021B000FF21997109499980E5E70124F4E7022498
:1021C000F2E7C046240100D0440F0020AAAA000074
:1021D00000ED00E03CDA0020CD01001001BDFFFF62
:1021E000054B064A1360064A136053609360D36040
:1021F00013615361936170478080808000E400E048
:1022000004E400E010B5084B084C82B001000093D4
:10221000002205232000FFF7D9F8002801DB1F2347
:10222000181A02B010BDC0460C2E031048DA002068
:1022300070B504000E001500FFF740F90100200002
:1022400000F006F8A680E580BFF35F8F70BDC04642
:10225000024B9C4661448900016070474000003495
:1022600010B50400FFF72AF901002000FFF7F0FF86
:10227000FF232371BFF35F8F10BDC04610B504006C
:10228000FFF71CF901002000FFF7E2FFFF23A38006
:10229000BFF35F8F10BDC04610B504000120FFF7EB
:1022A00019F9034BC3189B002360BFF35F8F10BD68
:1022B00040000034034B9C46614489000160BFF339
:1022C0005F8F70474000003483680B4810B5844628
:1022D000614462441201090159189B185C684A68FC
:1022E0000120944201D802D00020C0B210BD1A686B
:1022F0000B689A42F9D8F7E7FFFFFF0F0A4B1968FE
:10230000EFF3108072B60A68002AFCD0BFF35F8F2B
:102310001B68BFF35F8F00221A6080F3108840BFF4
:10232000002000217047C046A0D90020F8B55746CC
:1023300045464E46DE46E0B598460CAB1C780DABE4
:102340001B78070091469A460568002C59D1AC7B52
:10235000002C3BD0660029683619033E89194B785A
:10236000AB73002B00D1EB7300238B704B700B70A1
:102370002D4BE218BB6812019B184A461A60424670
:102380005A600A9A9A600B9ADA6000238B704B703D
:102390000B706B7B9B46002B26D022006B68594646
:1023A000A86898475B465B005B442A68033B0028AB
:1023B00012D058469619B070D118D35C002B00D0BB
:1023C00073705B460C706B735C450ED0F0BCBB4603
:1023D000B246A946A046F8BDD3189C709119925DEB
:1023E000002A1CD15B460B706C734A464346387D0D
:1023F00000F0D8FB051E0AD10E9B002BE6D01D7005
:10240000E4E7660029683619033E8919B0E75346A8
:10241000002BF1D12100386800F0DCFDECE75A70A8
:102420005B460B706C73E0E7FFFFFF0FF0B5DE4615
:1024300057464E4645460023E0B58BB00893684B9F
:102440008200D45800239B46099000F017FB02003D
:102450000B006068EFF3108A72B6564601680029D7
:10246000FCD0B246BFF35F8F21684F7B8C46002FB4
:102470002ED0A5685B49A9467918090189444946C7
:102480000868496805000E00AD1A9E41002E5FDD08
:1024900002000B00099800F085FB002300229946FA
:1024A000002306920793002398466368BFF35F8F6B
:1024B0005A461A608AF310884346002B12D100282E
:1024C000C3D10BB0F0BCBB46B246A946A046F0BD96
:1024D0000023002299460023069207930023002040
:1024E0009846E2E7089B494618023843C0476268AD
:1024F00005000E00EFF3108A72B61368002BFCD0B3
:10250000BFF35F8F002E41DB2B00334302D02369E2
:10251000002B56D12368D97B002905D01A684800C2
:1025200041185218033A57709A7B002A00D19F73C2
:10253000DF73E268013FD35D0133D3555B4623610E
:102540006368BFF35F8F5A461A608AF310887CE78E
:10255000002E02D1002D00D09AE70021604600F045
:10256000B7FC4B461A685B68069207934B469B681C
:1025700098464B46DB689946E368DB19013B1B78BC
:1025800008931B020343236100208EE72369002B7D
:10259000C0D0069A079B8021521BB34109068B428B
:1025A00002D30122104B52420021049101310391C8
:1025B000494601914146200002970091FFF7B6FE7F
:1025C000BCE700F05BFA2A00330012184B4180216F
:1025D00009068B42E8D30122034B5242E4E7C0468E
:1025E0006CD80020FFFFFF0FFFFFFF7F10B5144CDA
:1025F0006368002B04D00A211248FFF729FE10BDA2
:102600002300114A1021206800F07EFB032000F017
:1026100029FA032000F02EFB03200C4900F07CFA7D
:10262000FEF74CFF0A4B9C4603232375D0231B0661
:102630001B6860446375074B80006060DC60DAE70C
:102640008C0F0020A0D90020C92200102D240010DA
:10265000400000346CD80020004870478C0F0020E8
:10266000F0B557464E464546DE46E0B585B0019387
:1026700010AB1B780600039300239A4698460092FD
:102680007268EFF3108B72B61368002BFCD0BFF3A7
:102690005F8F3568AC7B002C00D16EE067002B6843
:1026A0003F19033FDB195A78AA73002A00D1EA7355
:1026B000484AA118B268090152180098019910609F
:1026C00051600E9991600F99D16042469A705A708C
:1026D0001A706B7B9946002B00D16BE022006B686F
:1026E0004946A86898474B465B004B442A68033B21
:1026F000002856D04846D719B870D118D35C002BA3
:1027000000D07B704B460C706B734C4553D0F36814
:102710001B19013B18787368BFF35F8F42461A603C
:102720008BF310885346002B08D10002204305B0DC
:10273000F0BCBB46B246A946A046F0BD039B002BA9
:1027400046D00E9B00200F99984703000B433FD0C3
:1027500004000D1E1ADA009A019B121BAB41009275
:10276000019380221206934204D301231A4C5B4248
:1027700000930194039B9A4682E77368BFF35F8FCF
:102780001C608BF3108801204042D0E700F076F9FE
:102790008022001969411206009001919142E9D30B
:1027A000E3E7D3189C70D119D25D002A00D05A708B
:1027B0004B460B706C73307D009A019B00F0F2F970
:1027C00082460028A3D02100306800F003FC9EE779
:1027D0000020ACE7FFFFFF0FFFFFFF7F407D70474A
:1027E000F0B504000D0006267642F717C6463619E6
:1027F0006F4100B584B08F4214D811D000F03EF97B
:1028000032003B00121A8B41002B15DC002B3ED00E
:102810002000290000F070F904B080BCB846F0BD7B
:102820008642EBD90026002700F028F932003B0051
:10283000121A8B41002BE9DD002302930193154B03
:102840003200009314483B00FFF70AFF0028DFDB4B
:1028500000239846BC46114A114F7B6A9C4504D818
:10286000B96A8E42D4D99C45D2D11168EFF3108059
:1028700072B60B68002BFCD0BFF35F8F1368BFF3F9
:102880005F8F4146196080F3108820BFE5E7002A7A
:10289000BED0D1E7FD2200108C0F0020A0D900206F
:1028A0000040054070B5060000F0E8F8FA22040088
:1028B0000D00002330000021920012F05FFE802303
:1028C000001969411B06994202D301200249404286
:1028D000FFF786FF70BDC046FFFFFF7FF0B5EFF347
:1028E0000583CE46474680B505000C0085B0002B19
:1028F00012D02A4A0020536AA34203D3926A0130BD
:10290000AA4204D305B0C0BCB946B046F0BD1B1BFB
:102910005A1E9341D8B2F5E7214E02930193214B01
:102920000200009330000B00FFF79AFE031EE0DD6B
:1029300020BF7168EFF3108772B60A68002AFCD0D6
:10294000BFF35F8FDAB29446FF2230681A40417BB2
:1029500061450FD001688946510088464946904438
:10296000414403398978002904D13269934209D15D
:10297000316107E0F1681B0A8A18013A1278DBB26C
:102980009A4207D07368BFF35F8F00221A6087F303
:102990001088AEE7614600F01DFBF3E700400540FC
:1029A0008C0F0020FD220010F0B5EFF30582D64613
:1029B0004F4646461000C0B51038EFF3108872B687
:1029C000214C2368002BFCD0BFF35F8F012319003B
:1029D00081401E4D1F006963AA461D4D29601D4D93
:1029E0002E78AC463500C5402F402B4215D05346BB
:1029F0005F6A194B8500EB589F4218D36246174B0C
:102A00008E43EB581670BFF35F8F0022226088F36D
:102A10001088002B06D0984704E0BFF35F8F276033
:102A200088F31088E0BCBA46B146A846F0BD0C4B0E
:102A300092009C46624413681360BFF35F8F0023CB
:102A4000236088F31088EDE7280100D0004005409E
:102A50003C70054047DA0020BCD9002074280020D3
:102A6000D03F054010B5034B01001800024AFEF7A5
:102A70008BFC10BD33DA0020282E0310034B596A5B
:102A80000A00986A596A8A42FAD1704700400540A4
:102A900070B504000D00174A536A1900966A536A0C
:102AA0008B42FAD13000190024184D41AB4216D8A0
:102AB00013D0104B2A005B6A9D4203D90D494B6A23
:102AC0009342FCD3934207D10A4A02E0516A9942E9
:102AD00002D1916AA142F9D370BDA642E9D9054B52
:102AE0005B6A1C005A1CEFD0012201246442E517E6
:102AF0005242E3E700400540064A536A9942FCD837
:102B000007D1044B02E05A6A914202D19A6A82428A
:102B1000F9D370470040054070B504000D00EFF395
:102B2000108672B61A4A1368002BFCD0BFF35F8F71
:102B3000002D1BD02000FFF7EBF8164981420AD088
:102B40002000FFF7EDF801212000FFF7B1F8012385
:102B5000A340114A1360114BA400E550BFF35F8FEF
:102B600000220B4B1A6086F3108870BD0121A14032
:102B70000A4BA200D5500A4B20001A788A43054917
:102B80001A70FFF7F1F900212000FFF791F8E5E74F
:102B9000280100D0A92900103860054074280020C1
:102BA00047DA0020F0B54F46D6464646C0B5070086
:102BB0002B4C616A0D00A66A616AA942FAD18B4268
:102BC00008D805D00120E0BCBA46B146A846F0BD01
:102BD000B242F7D9EFF3108A72B622480168002991
:102BE000FCD0BFF35F8F0125BD401F491C4C8846B8
:102BF000097889462943C9B28C4641466046087027
:102C0000391D890065630A511849B8004350216A8B
:102C10000020294219D0616A0800A66A616A8142CF
:102C2000FAD18B4219D801D1B24216D8CC450BD07B
:102C30000B4B1F221D625D6301233A4093400C4AF7
:102C4000136043464A461A700120BFF35F8F00228B
:102C5000044B1A608AF31088B5E70020F5E7C046F8
:102C600000400540280100D047DA0020BCD90020F0
:102C700080E200E0EFF3108C72B60A490B68002B7B
:102C8000FCD0BFF35F8F01238340074A07481362DC
:102C900002789A430270BFF35F8F00230B608CF3BE
:102CA00010887047280100D00040054047DA002016
:102CB00070B506000D00140000291DD0002A12D0A6
:102CC00073688068984762006B0012195B1931685D
:102CD000033A033B002808D08A189570C818CB5CCB
:102CE000002B0BD10470280070BDCB189C70881885
:102CF0008A5C002A05D105702000F5E75370047046
:102D0000F1E75A700570F7E710B583600023CCB285
:102D100043730133426004738373C4730068421CBD
:102D2000012C05D90133DBB2137003329C42F9D177
:102D3000FF230B405A00D318C018002303384370F8
:102D400010BDC04670B505000C1E07D063000168B9
:102D50001B19033BCB185A78002A01D1200070BD03
:102D6000500080180338091800204E784870210060
:102D700058702800FFF79CFF310004002800FFF77F
:102D8000E1FF0600002C20D00028E7D0320021000F
:102D90006B68A86898477200630092191B1929682C
:102DA000033A033B002808D08A189470C818CB5CFB
:102DB000002B00D053700670D0E7CB189E70881897
:102DC0008A5C002A00D05A7004703400C6E7C046FE
:102DD000F0B557464546DE464E46E0B50D006F005D
:102DE00001687F19033F0400C85D83B00192CA19CE
:102DF000002850D043001B18033BCB185E78B44624
:102E0000002E1AD1019E002E42D0E67B002E04D067
:102E100073009B19CB18033B5D70A37B002B00D183
:102E2000A573E57300282FD10023537003B0F0BCC5
:102E3000BB46B246A946A046F0BD72006244033AC2
:102E40008A1851788846002151708946597032009D
:102E500001002000FFF72CFF43468246002B07D0DD
:102E60005B0021684344033BCB185A78002A16D1F3
:102E7000424651462000FFF71BFF2168019BCA19FB
:102E8000002BC2D10028CFD043001B18033BCB1826
:102E900000219970C8E7019B002BB6D1C4E7500010
:102EA0008018033809184878834648464870587097
:102EB00041462000FFF7FCFE594680462000FFF700
:102EC00041FF414602002000FFF7F2FE8046CFE7B7
:102ED000F0B557464546DE464E46E0B583B0019113
:102EE000457B04006F0000687F19033FC15DC21974
:102EF000002952D04B005B18033BC3185E78B446E0
:102F0000002E1CD1019E002E44D0E67B002E04D062
:102F100073009B19C318033B5D70A37B002B00D18A
:102F2000A573E573002931D1002328005370617324
:102F300003B0F0BCBB46B246A946A046F0BD720045
:102F40006244033A821850788046002050708146CF
:102F5000587032002000FFF7ABFE43468246002B3C
:102F600007D05B0021684344033BCB185A78002A02
:102F700017D1424651462000FFF79AFE019B0100FF
:102F80002068C219002BC0D10029CDD04B005B189E
:102F9000033BC31800209870C6E7019B002BB4D1F7
:102FA000C2E750008018033809184878834648461D
:102FB0004870587041462000FFF77AFE5946804617
:102FC0002000FFF7BFFE414602002000FFF770FE21
:102FD0008046CEE770B5050000292CD0437B8B429C
:102FE0002ED04C0000686418033C0419A278002A13
:102FF00021D053009B18033BC25CC6188A4202D101
:103000001BE0002A08D053009B18033BC3185A78D2
:103010008A42F6D162785A70002301222800A370F8
:103020006370FFF7D5FE697B02002800FFF740FEC2
:103030006873012000E0002070BD63783370EBE717
:1030400001221900FFF7C4FEF2E7C046F8B50400FC
:1030500022481E0017000D0011F022FF0100380069
:1030600011F01EFF069B36041B031E432368002B32
:1030700022DB1B4B1B49E3185A1E9341802292010D
:1030800094465B421B0B184A1B0363441360174AA8
:1030900013601F008A689743FBD1C022231D920151
:1030A0001A4321232560A06013602368002BFCDAFB
:1030B0000823E6601360F8BD3F2322681340AB424B
:1030C000D7D1A3681B051B0D8342D2D1EE22E36842
:1030D000D2021340B342CCD1EDE7C046001BB7008B
:1030E0000040FDBF00C0004000E0004000F0004094
:1030F0008023024A9B000343D3627047008005404F
:1031000010B580241C4BE4051C6000281AD0012354
:103110001A4C18431A4BDC611A4C44401C62596229
:1031200098628021144BC905196017481749086037
:10313000E021C9041960002A07D18022144B12062D
:103140001A6010BD0E4BD861EBE753019B1A9B0030
:103150009A18802312015B049A4209D213000D4988
:103160000B60074B5A608022094BD2051A60E8E7D2
:10317000094B1A00F3E7C04600B00540D3C007B0C2
:10318000008005402D3FF84FFCFF01000820014062
:1031900000A00540C83D0020FFFFFF00AA23064A0B
:1031A0001B0113602F230549D360054B1960536839
:1031B000002BFCDA7047C0460040024000B0FA0025
:1031C0000060024010B502F087F801F0C9F801F084
:1031D000FBF801F09FF907F033FB02F0CFFD00F0A0
:1031E000FDFB07F04FFA10BD40BA80B27047C046F1
:1031F00000BA7047F0B58446002408002027013A41
:1032000002E00134002D11D063461D5D035D9D4237
:103210000AD02E003E43F6B231006139192907D891
:103220003B43DBB29E4203D1A242EAD10020F0BD73
:103230000120FCE7F0B5C646584D04002B688846CF
:1032400000B5002B03D02A7A824200D17CE0544E94
:103250002701EB68002B02D02A7DA2426AD0AB691D
:10326000002B03D02022AA5CA24259D06B6A002B0B
:1032700003D02C22AA5CA2422CD03B191B01F318CC
:10328000DB7B002C35D0B27A022A68D0012C35D0F5
:103290008D225200B25C022A00D172E0022C31D0A1
:1032A000404AB25C022A00D172E0032C2AD1032BDF
:1032B0000DD83D4D9B00585907F01CFE00223F19C8
:1032C0003F01F719FB7B9B005A510423FB7380BC21
:1032D000B846F0BD3819000110304146AA6A3018CE
:1032E000984700236B623B191B01F318DB7B002C12
:1032F000C9D18D225200B25C022A3BD0294AB25C6D
:10330000022A32D0294AB25C022AD0D1284AB25CC1
:103310009A42CCD104223B191B01F318DA73D6E789
:103320003819000110304146EA69301898470023E7
:10333000AB619BE738190001103041462A6930180B
:1033400098470023EB608AE707013818144E000104
:1033500010306A683018984700232B6079E7F27BB9
:103360009A42D7D0012C93D1C8E7124AB25C9A4254
:10337000C8D1CFE72022FF32B25C9A4200D08FE75B
:10338000C8E72022FF32B25C9A4200D086E7C1E74C
:10339000084AB25C9A4200D087E7BBE700350020BC
:1033A000383500202A020000F03400203A030000E3
:1033B0003F0300002F020000564BF0B54546DE46A5
:1033C00057464E4698460301E0B59B461D184346B6
:1033D0002D015E19F37A070089B0012B00D996E020
:1033E0004D4A9B00D4580192002C00D185E0103545
:1033F000454428002EF036FCA022123081B2920003
:10340000362001F0A9FA8146002869D005AC0C22CB
:103410000021200012F030F93089FFF7E5FE01238A
:103420002080A3700C22FF3321004846A38001F0C6
:1034300095FD3A4B0C269A464346013D029703936D
:103440006A786F1C3B0000242E2A07D15AE05A7874
:103450000134E4B2591C2E2A49D00B00002AF6D1BF
:10346000DA1B92B290461D002200B218524534DC9D
:1034700022003100484601F04FFE731C9BB2A41994
:1034800042463900484601F0A5FDA4B22B78661CDF
:10349000B6B2002BD4D1039B002231004846984697
:1034A000029F01F039FE1E4B02340422049304A94A
:1034B000A3B2484601F08EFD3B0001995B448C4667
:1034C0001B014344DA7ADB7B16499B009200585873
:1034D00062443523494607F09BFC484601F08EFBC9
:1034E00009B0F0BCBB46B246A946A046F0BD5B1B86
:1034F0009BB2984622000D00B7E70021FFF79AFE25
:10350000B472EDE700233D0000229846ADE706487F
:1035100010F0ACF83835002030350020FEFF0000F8
:1035200000010001F03400204C2E0310F8B5CE4607
:103530004746040080B5042800D17FE00501414ED4
:103540002B181B01F1188A7A022A33D027D8002AB7
:1035500021D03D4B8D2798463C4B7F009946FDF787
:10356000F7FDB37A80B2022B3AD0F35D022B3BD049
:103570004346F35C022B3DD04B46F35C022B3FD01D
:1035800002232D192D0175196B81013B2881AB8117
:103590002000FFF711FFC0BCB946B046F8BD032AB2
:1035A00049D1F258002A16D100232D192D01751981
:1035B000AB72F0E70B7B013BDBB20B73002BEAD164
:1035C0004B7B0133DBB24B73042B1FD00B732000FA
:1035D000FFF7F2FEDFE7013AF250002AE4D0DAE723
:1035E00033898342C1D1BAE71733FF33F35A834299
:1035F000BED1B4E78A239B00F35A8342BCD1AEE725
:10360000CE239B00F35A8342BAD1A8E7CB7A002B92
:1036100007D10F4B5B68002B03D00123CB728B814A
:10362000D5E700212000FFF705FE00222B191B0122
:10363000F3189A72AFE7074810F018F8064810F030
:1036400015F8C046383500202A0200003A03000071
:1036500030350020802E0310642E0310F0B557463D
:10366000DE464E464546E0B51F00138914008FB074
:103670000F2B09D8200001F0C1FA0FB0F0BCBB46F7
:10368000B246A946A046F0BD00230C22200008A99E
:1036900001F0E2FB05000C28ECD106AB1889FFF71E
:1036A000A3FDC34EB37A022B78D08D235B00F35C6D
:1036B000022B7BD0BF4BF35C9846022B00D17FE0FE
:1036C000BD4BF35C022BD5D1CE239B00F35A834232
:1036D000D0D1032398469A4606AB9889FFF784FD1C
:1036E00006AB8146D889FFF77FFD06AB01909B7A38
:1036F0007F2BBFD94B46012BBCD153461B015344F2
:103700001B01F318DB7AAD499B003A68CB58029154
:103710009A42AFD1882352465B005A43A84B03928A
:103720009B4603239946434604935346A046B2461C
:103730001032B71805932900404601F0D9FC002843
:103740002ADB5D4528D0C0230135ADB20340C02B34
:1037500022D000283DD09B4C3E1817E049463A78CD
:10376000A35C0B40012B00D12032FF2349461840B7
:10377000235C0B40012B00D1203082420CD15D45EF
:103780000AD001350137ADB2BE4222D029004046F1
:1037900001F0AEFC0028E1DA44466BE7338983424E
:1037A00000D082E7002398469A4695E71733FF3307
:1037B000F35A834200D07DE7012398469A468BE76F
:1037C0008A239B00F35A834200D079E702239A466A
:1037D00082E729004046013701F08AFC0028DBDB44
:1037E000A9D1049B44469846059B56469A46744B7D
:1037F0009D4200D13EE76F1CBFB29F4200D139E726
:103800003B000422200006A901F026FB042800D07A
:1038100030E7802306AA52885B009A4200D029E74D
:1038200006AB1B88934200D024E7674A974200D931
:1038300020E706AAD27A12075CD199460535ADB2C7
:10384000019B002B00D1A4E02389AB420ED8A0E05D
:1038500023893818984200DB0CE785B22900200044
:1038600001F046FC002800DA04E710D06F1C2900A4
:103870002000BFB201F03CFC002800DAFAE6002F7D
:1038800000D1F7E6C0230340C02BE1D13D004C4BF3
:103890009D4200D1EEE66A1C92B293469A4200D154
:1038A000E8E60BAF130039000A22200001F0D4FA39
:1038B0000A2800D0DEE6454B9B4500D9DAE67B8836
:1038C0000B353889ADB24B4502D13B884B4527D0EB
:1038D000FFF78AFC802328185B02984200DBC9E6C8
:1038E0003889FFF781FC019B4519013B9BB2ADB2C2
:1038F0000193A5E7882352465B005343F318DB7A14
:10390000002B46D1029B5B68002B42D088235B00D2
:1039100053432F492F4A4046D152FFF707FEA9E6ED
:103920008023DB009842D3D12B000422200007A97A
:1039300001F092FA042800D09CE6882553466D00D9
:103940005D43731999464A46079B2000536001F076
:1039500055F97868FFF74CFC03234A4693721E4BD7
:10396000984200D9180003997051043140467118EB
:10397000FFF760FC882352465B005343F258002A4D
:1039800000D07AE6F318997A032900D075E69A7286
:1039900073E6200001F032F900214046FFF74AFCAF
:1039A000882352465B0053430022F3189A7264E660
:1039B000383500202A0200003A030000303500208C
:1039C000FFFF000079F10610FBFF0000F5FF00008B
:1039D0000103000044350020803A09007047C046CA
:1039E000012800D97047054B8000002902D00A68E1
:1039F000C250F7E7024A1268C250F3E730350020A0
:103A000044610310F8B5DE4657464E46454602234C
:103A1000E0B5474E002534009B460027A37A022BD1
:103A200039D030D8002B22D08D235B009846414BF3
:103A30009946414B9A46FDF78BFBB37A80B2022B35
:103A400041D04346F35C022B44D04B46F35C022B3F
:103A500049D05346F35C022B4ED05B46A372012340
:103A60002081E772280023736773FFF7A5FC0135F7
:103A70001134EDB2FF34042DD0D1F0BCBB46B246B8
:103A8000A946A046F8BD032B4FD12368002B13D1C4
:103A90000023A372EBE7237B013BDBB22373002BF4
:103AA000E5D1637B0133DBB26373042B2AD023732C
:103AB0002800FFF781FCDAE7013B2360002BD6D119
:103AC0000023A372D3E733898342B4D04346F35C27
:103AD000022BBAD11733FF33F35A8342ABD04B4694
:103AE000F35C022BB5D18A239B00F35A8342A2D008
:103AF0005346F35C022BB0D1CE239B00F35A834292
:103B0000ABD198E7E37A002B08D10C4A5268002A1F
:103B100004D001226373E2722273C9E700212800F6
:103B2000FFF788FB0023A372A1E705480FF09EFD75
:103B3000383500202A0200003A030000303500200A
:103B4000802E0310F0B557464E464546DE46E0B59A
:103B500004008A469146984687B0002900D134E295
:103B6000002800D131E20378002B00D12DE22EF0A5
:103B700079F8461EA35D2E2B00D00600FF2E00D93B
:103B800023E2514620000AF05DFD071E07D0002009
:103B900007B0F0BCBB46B246A946A046F0BDC14D39
:103BA000AB7A032B61D08D235B00EB5C032B70D0D1
:103BB000BD4BEB5C032B7ED0BC4BEB5C032B00D1ED
:103BC0008EE0BB4B1B68002B00D117E2AB7A022BB7
:103BD00000D19AE08D235B00EB5C022B00D1BAE0B0
:103BE000B14BEB5C9A46022B00D1DEE0AF4BEB5CB5
:103BF000022B00D102E1AF4B01931A78AB7A9A46BF
:103C0000002B00D1E4E1032B28D0042100238D20D8
:103C10004000285C002800D1E0E1032800D126E123
:103C2000A148285C8246002800D1DFE1032800D1AA
:103C300028E19E48285C002800D1E2E1032800D159
:103C400040E1042907D00B015B181B01EB189B7A9C
:103C5000032B00D1B7E10120404299E7AB7BD31A97
:103C6000DBB2594259418900D1E7290032002000D6
:103C70001031FFF7BFFA002895D1AB191B7C002B40
:103C800091D1524603011B181B01EB185B681360AE
:103C90007DE72900213132002000FF31FFF7AAFA29
:103CA000002885D1AB192133FF331B78002B00D0BE
:103CB0007EE70120E5E78C239B0032002000E91815
:103CC000FFF798FA002800D076E78C2292009446FD
:103CD000AB1963441B78002B00D06DE70220D0E7BE
:103CE000D0239B0032002000E918FFF783FA002858
:103CF00000D066E7D02292009446AB1963441B784B
:103D00000330002B00D05CE7BBE729003200200025
:103D10001031FFF76FFA002800D05BE7AB191B7C6E
:103D20009A46002B00D055E7634B9B461B68002B3F
:103D300000D18EE05B46DB68002B00D1B1E15B4631
:103D40009B69002B00D1B0E15B465B6A002B00D081
:103D500040E703207DE02900213132002000FF31BF
:103D6000FFF748FA002800D03AE7AB192133FF33B8
:103D70001B78002B00D033E74F4B9B461B68002B72
:103D800000D1A0E15B46DB68002B00D197E15B46E8
:103D90009B69002B00D19CE15B465B6A002B00D045
:103DA0001EE7012303209A4653E08C239B00320038
:103DB0002000E918FFF71EFA002800D016E78C2231
:103DC00092009446AB1963441B78002B00D00DE79A
:103DD000394B9B461B68002B3BD05B46DB68002BB6
:103DE00000D15EE15B469B69002B00D15DE15B4643
:103DF0005B6A002B00D0F9E603202AE0D0239B0069
:103E000032002000E918FFF7F5F9002800D0F2E6AB
:103E1000D02292009446AB1963441B78002B00D04B
:103E2000E9E6254B9B461B68002B00D14EE15B4623
:103E3000DB68002B00D132E15B469B69002B00D18F
:103E400031E15B465B6A002B00D0D4E603339A462F
:103E500018005A46494643001B189B00D150424661
:103E60005B445A6052461A720520404290E61C306C
:103E7000FF30285C101AC0B2834200D3D0E60300A2
:103E80000121CDE60D48285C101AC0B2834200D350
:103E9000CFE6064BEB5C002B1DD0032B10D002218C
:103EA000D1E6C046383500202A0200003A0300005F
:103EB0003035002037DA0020003500202E020000C7
:103EC000030002219148285C101AC0B2834200D33B
:103ED000B7E603239A4603210B015B181B01ED187B
:103EE0008B4B9B461B68002B74D05B46DB68002B1A
:103EF00078D05B469B69002B7CD05B465B6A002BCD
:103F000000D0A8E60333190002938C464B005946B3
:103F10005046049363449B00C91808720120AA7399
:103F2000A8725A464846D050434628004B6032009B
:103F30002100103011F0A6FB0023764CAE1933742B
:103F40002368002B61D06368002B00D1A3E0A36835
:103F5000002B00D19BE0E368002B00D1A7E06E4A64
:103F600013780133DBB2032B00D9A6E09900615826
:103F7000002900D09FE05E1CF6B2042E00D0ACE019
:103F80002368002B00D098E06368002B0AD001263C
:103F90001670019A50461378EE7301331370FFF7D1
:103FA000C5FA61E702263700BF00E359002BEFD1C5
:103FB00004220299EA738C465946049AAB72624411
:103FC00092008B5047E68A4686E710204042DFE5A4
:103FD000002181E700231900029396E701230121C4
:103FE0009A4679E70123190002938EE70223022102
:103FF0009A4671E702231900029386E706204042A1
:10400000C6E5032303219A4666E7002300260593AD
:104010002E2006F09BFF8146002820D03F4B0393C3
:104020008023DB009846FDF793F882B24245FAD32D
:104030004846039906F0A4FD03000833F3D0002896
:104040000AD100224846364906F04EFF4A46059BF3
:104050009B00E250304A9BE7484606F04BFF0022A7
:10406000059B9B00E2502C4A13780133DBB2032BF3
:1040700000D87BE72368002B1FD16368002B86D113
:10408000A368002B01D103268DE7022680E70223D7
:1040900002260593BCE7012301260593B8E7032315
:1040A0009A460120D5E603239A460220D1E603234F
:1040B00003260593ACE71E006AE7002668E70123A4
:1040C0009A461800C5E601239A46C2E603239A469B
:1040D000BFE6012302209A46BBE6B10061580029E1
:1040E00000D055E79E1CF6B2042E04D12368002BA5
:1040F000E3D1033E57E7B1006158002900D047E7FC
:104100000E00012B00D14FE703264CE73E030000D1
:1041100000350020F034002036DA0020446103101E
:104120005D36001010B5002482B00094FFF70AFD40
:1041300002B010BD0123F0B51E0000250640184254
:1041400005D0002953DD057801392D020130032205
:1041500013000340104251D1072957DD07220839C7
:104160000F0091430A0001000400083189182268F9
:104170009A189A429B415B42D21863680834D3185C
:104180009342924152429B18A142F0D1F9084A1C35
:10419000D2008018C9001A04791A120C1B0C9B1843
:1041A000012910DD02889B188A1E012A05DD44883A
:1041B0001B19052901DD81885B1851084C1C64001E
:1041C00049000019511A012904D10278FE318D43AA
:1041D0001543ADB2ED182B0C2D042D0C5B19180CEA
:1041E0001B041B0CC018002E02D180B2F0BD0020B1
:1041F000030600041B0C000E1843F6E7012903DD3B
:10420000038802390230A7E70023DCE71A00C5E77C
:10421000F8B557464E46DE464546E0B591460A9A01
:104220008A4611681B680A04120C090C52181904FA
:10423000090C52181B0C9B181A0C1B041B0CD318CE
:104240001F0C1B041B0C0400FF18002825D00023A2
:104250009B46FF3301269846658960682900FFF771
:1042600069FFC019070C0004000C3F182E4209D04A
:104270005B46414673403A069B463B0A120C0B4094
:104280001A4317002468002CE6D15B46002B04D0AB
:104290003A063F04120C3F0E17435046FEF7A4FFA8
:1042A00004004846FEF7A0FF2318DB191A0C1B0474
:1042B0001B0CD318180C1B041B0CC018C04380B275
:1042C000F0BCBB46B246A946A046F8BD10B582B0C8
:1042D000049C0094FFF79CFF02B010BD10B5FFF7DF
:1042E00029FFC04380B210BDF8B5CE464746040052
:1042F00080B500282FD000239946FF3300270126E0
:104300009846658960682900FFF714FFC019070CFB
:104310000004000C3F182E4209D04B464146734022
:104320003A0699463B0A120C0B401A4317002468C0
:10433000002CE6D14B46002B0AD038063B04000C7B
:104340001B0E1843C04380B2C0BCB946B046F8BD8E
:10435000F84380B2F8E70148F6E7C046FFFF0000E7
:104360007047C0467047C04610B511F055F9041E9D
:1043700006D00322C31C9343984206D1200010BDEF
:10438000FCF734FBFCF734FBF8E701480FF06EF95B
:10439000A02E031010B5002807D00322C31C93439E
:1043A000984205D111F05CF910BD03480FF05EF999
:1043B00002480FF05BF9C046C42E0310D42E031040
:1043C00010B511F03BF910BD28230022F0B5474687
:1043D000CE4690469946033204249446124E80B548
:1043E000124B134FB1444146326839606146033382
:1043F0008B43002C0BD015880021002200E0030025
:104400000132196058191900A242F8DB3B600436EA
:10441000B14504D03268976853685488E3E7C0BC5C
:10442000B946B046F0BDC046D05D0310E4CF0020D1
:1044300020D8002010B5092812D80C4B8000C45891
:10444000FCF7D4FAA3681C68002C07D022681A6015
:10445000A30707D1FCF7CCFA200010BDFCF7C8FA7F
:104460000024F9E702480FF001F9C046D05D0310BF
:10447000002F031070B50C0009280ED800290CD0AD
:10448000084B8000C5588B0708D1FCF7AFFAAB6822
:104490001A6822601C60FCF7ABFA70BD02480FF08E
:1044A000E5F8C046D05D0310242F03100C204042D5
:1044B0007047C04670B5436816000A6804000D00D6
:1044C00082B09A4201D102B070BD3360300001A9C0
:1044D000019202F0C5FE300001A906F045FD01A9D8
:1044E000300000F0D9FE392329686160E25C343B7A
:1044F0001340052B05D0E369002BE4D0200098473A
:10450000E1E70029F7D01207F5D52000211D08F0BA
:104510006FFEF0E77047C046F0B54746CE4680B51F
:1045200004000F009146984683B0002800D180E037
:104530000B9B002B7DD0002900D18FE04B46002B38
:1045400000D188E04346002B00D181E0474B002595
:1045500063610022392320006560A560E56025863F
:104560000021E2542830042211F086F80A9B404EC4
:1045700063623C233278E5612562E2540C9B23613F
:104580003B68002B5BD00021002000224B461B68BB
:10459000984200D0A36043461B6899423CD1002A50
:1045A0003DD020000B9B9847002842D1314B9C46C0
:1045B0001F683C23E55CFF2D18D03C20002F1AD04B
:1045C000BC424FD03B00FF2207E01B68002B12D0FB
:1045D0009C4247D0013A002A17D0195CA942F4D175
:1045E0000135EDB2FF2D13D02554E9E7E054002545
:1045F0003C20002FE4D1FE2D32D00135EDB26346D0
:104600002760200035701C6014E01B480FF02EF866
:10461000002300252354D3E7E360002AC1D1200002
:10462000390001AAFFF746FF20000B9B984700289E
:10463000BCD0002003B0C0BCB946B046F0BD3900C4
:10464000200001AAFFF736FF0122A068E1689DE77C
:104650000A4B98467AE7094B994673E7074F6DE78F
:104660000025CCE706480FF001F8C046AD44001025
:104670003FDA002040D80020582F03104461031077
:10468000442F0310F0B504000D0017001E0083B086
:10469000002922D0002F23D0002E24D02B68002206
:1046A000002B15D03B68A1688B4200D0A360336813
:1046B000E1688B4203D1002A04D003B0F0BDE3606F
:1046C000002AFAD16A4629002000FFF7F3FEF4E73A
:1046D0006268002A09D10122E4E7164D002FDBD1E0
:1046E000144F002EDAD1134ED8E7684601A9019382
:1046F000009202F0B5FD684601A906F035FC01A95B
:10470000684600F0C9FD39232A686260E15C343BE9
:104710000B40052B07D1002A05D0090703D520003F
:10472000211D08F065FDE369002BD4D020009847D7
:104730000122B7E74461031070B5041E16D0436828
:10474000002B17D139220121A35C194224D11D4B22
:104750001A68A2422ED01C4A1368A34204D126E054
:104760001A68A24203D01300002BF9D170BD226851
:104770001A60FBE7051D0021280002F071FD0021F1
:10478000280006F0F1FB0021280000F085FD392209
:104790000121A35C1942DAD018008843A0541B07FA
:1047A0000BD4E369002BD2D020009847CFE72368D1
:1047B0001360DBE700221A60CDE7200008F076F9ED
:1047C000EFE7C0463CD8002040D80020014B1860DD
:1047D0007047C0463CD8002070B5041E15D039255E
:1047E000435DDA0711D401221343DBB24355C2699A
:1047F000002A01D09047635D05221A40052A04D1A2
:104800006268002A01D01B0700D470BD2000211D62
:1048100008F0EEFCF9E7C04670B5041E03D0392558
:10482000435D5A0700D570BD04221343435507F07A
:10483000A1FA0523625D1340052B05D0236A002BE6
:10484000F1D020009847EEE76368002BF6D01207FE
:10485000F4D52000211D08F0CBFCEFE710B50028AF
:104860000AD039220421835C194205D08B4383543A
:10487000036A002B00D0984710BDC046021E0ED020
:10488000084B1868002809D03C2102E00068002885
:1048900004D0435C0133DBB29342F7D17047002070
:1048A000FCE7C04640D80020F8B5050000260028E7
:1048B00026D00F270BE0012B24D0002B2AD1280073
:1048C000FFF768FD0136F6B2002C19D02500FCF781
:1048D0008DF8AC7B002C1AD0013CE4B2AC73FCF731
:1048E00087F8002C0CD12B7B2C683B40022BE2D1AB
:1048F000290009200136FFF7BDFDF6B2002CE5D1F5
:104900003000F8BD29000820FFF7B4FDDAE70348BE
:104910000EF0ACFE02480EF0A9FEC046882F031030
:10492000A02F031010B5FCF761F80022084B1A7095
:10493000FCF75EF8074B1868002803D107E0C06851
:10494000002804D0436F002BF9D002F0EDFC10BD1D
:1049500041DA0020CCD90020F0B5C1234F46D6461D
:10496000464604000D009146C0B55B009A423ED019
:1049700000220F0490460F43994508D84C46433B0C
:10498000FF3B9C43012C23D039480EF06FFEA0233F
:104990009B009945F8D1032399464A4603359D4328
:1049A000C31C93431035E818FFF7DEFC061E09D040
:1049B000434603604B46041913349C432D4B44601B
:1049C0008760C3603000E0BCBA46B146A846F0BD7F
:1049D0000820FFF72FFD061EF4D043460360436016
:1049E0004B460373434687604373C481EAE7002361
:1049F0009846214B00269A4600230327994607E054
:104A00004246ED1AADB21060002DDBD08046002486
:104A10000920FFF70FFD00281BD05246E31CBB43C3
:104A2000D31A1A1C9BB2AB4200D92A1C494604195E
:104A300093B213344281114ABC4301604460058142
:104A4000C260002EDCD1ED1AADB20600002DDDD122
:104A5000B8E7FBF7CBFF0122094B1A70FBF7C8FF41
:104A6000002E02D03000FFF71FFF0026AAE7C04645
:104A7000B42F031080000100EC050000820001004B
:104A800041DA002070B5041E32D002898A421BD957
:104A90008A1A07E0C91A238989B29B1823812468DE
:104AA000002C1FD063898B42F4D3227B0D040D436D
:104AB000120701D18B4208D12068A560002801D0DF
:104AC000FFF7F2FE0023236070BD636820001B1B0C
:104AD0005918FFF747FC002807D08442ECD006485D
:104AE0000EF0C4FD05480EF0C1FD05480EF0BEFDF8
:104AF00004480EF0BBFDC0461C300310E82F031025
:104B000000300310D02F0310030070B500281ED012
:104B100080225202914218D2002914D002898CB20C
:104B2000A21892B2944210D8057B01207F2D0BD998
:104B30005D68691A1D001035A94205D3596059896D
:104B40001A8164185C81002070BD0120FCE70148D7
:104B50000EF08CFD3830031010B5002815D08023DE
:104B60005B0299420FD200290BD043898AB29A4244
:104B700009D89B1A44684381038961189B1A4160D4
:104B80000381002010BD0120FCE701480EF06EFDFE
:104B90003830031010B5002915DB002829D0002972
:104BA0000FD003898AB2D3189BB29A421FD84468A7
:104BB000611A047B7F2C16D8416041890381521809
:104BC0004281002010BD002813D0494243898CB295
:104BD0009C420CD81B1B42684381038952181B1B43
:104BE00042600381EDE704001034A142E4D20120C9
:104BF000E8E701480EF03AFD3830031010B5002800
:104C000002D0FFF751FE10BD01480EF02FFDC04647
:104C10003830031003000020002B04D01B68013043
:104C200080B2002BFAD1704710B5041E09D0FBF7F3
:104C3000DDFEA37B0133A373FBF7DAFEA37B002B1E
:104C400000D010BD01480EF011FDC04644300310E5
:104C500010B5002816D0002914D00268002A01D10E
:104C600011E01A0003890C891B19038113681000D5
:104C7000002BF6D110895389834206D1088911602F
:104C80001B18138110BD0200F4E701480EF0EEFC82
:104C90005830031010B50C0000281FD000291CD07C
:104CA0000368002B07D0028921895218028118005D
:104CB0001B68002BF7D102894389934211D12289C5
:104CC00004609B180381FBF791FEA37B0133A37360
:104CD000FBF78EFEA37B002B06D010BD0029FCD075
:104CE000F1E703480EF0C2FC02480EF0BFFCC046DC
:104CF0005830031044300310F8B54746CE4606003E
:104D000080B5884691461F00002900D18AE00B89B2
:104D1000934200D286E0002800D183E04B4602890E
:104D2000FB189A4200DA7DE000250EE0BA4242D03C
:104D3000424612899A4236D0002E03D072893389B6
:104D40009A4245D04B46002B5FD0434674895B891D
:104D5000E41B5B1B9C4200D91C004C4500D94C460F
:104D60004346706859682200C019491910F08AFC3E
:104D70004B463F192D1972891C1BA3B29946BA42A2
:104D800053D343465B89AB4252D3CFD143461B68D2
:104D90009846002B28D0BA420CD042465B89128933
:104DA00000259A42C8D143461B68002BC4D0062078
:104DB00040422BE000253668002E1ED043465A891B
:104DC0001B899A420AD00027728933899A42B9D145
:104DD0003368002BB6D00620404217E043461B68DC
:104DE000002BE4D10027EFE74B46002B1AD100251A
:104DF000BA42A1D1002736689EE74B46002B11D15D
:104E000043465A891B899A4204D00020C0BCB94647
:104E1000B046F8BD43461868431E984105234042FA
:104E20009843F3E710204042F0E703480EF01EFCE1
:104E300002480EF01BFCC04688300310A03003105F
:104E400010B5002904D000230A89FFF755FF10BDD3
:104E500010204042FBE7C046F0B5C6460500884634
:104E60001700002600B5002826D0002924D0002FE6
:104E700005D121E02D681B1B9BB2002D1CD06C8935
:104E8000002B01D0A342F5D2E41A221CA4B2BC42EA
:104E900000D93A1C94B2424669683F1B9019C91860
:104EA00022003619BFB210F0EDFBB6B22D68002F0C
:104EB00002D00023002DE2D1300080BCB846F0BD06
:104EC000F8B54746CE4680B5984608AB04000D00BD
:104ED0001B88002815D0002913D0424505D210E0C8
:104EE00024689B1A9BB2002C0BD062899A42F7D996
:104EF000414659188A4209DB6068C01802E0B8458B
:104F00002AD00020C0BCB946B046F8BD46460027AE
:104F1000002E06D120E09B1A24689BB2002CEED014
:104F20006289002B01D09342F5D2D21A111C92B2A1
:104F3000B24200D9311C8AB291466168E819C91899
:104F400010F0A0FB4B46F61A4F44B6B22468BFB22D
:104F5000002ED4D00023E1E72800D3E7F8B5CE46F1
:104F6000474605008846914680B5002824D0002990
:104F700022D0038993421CD316000027002A02D1B5
:104F800012E0002D1BD06C89B44200D93400434696
:104F90006868D919220010F075FB361B2D683F197F
:104FA000002EEED1B9450DD10020C0BCB946B046A7
:104FB000F8BD01204042F8E710204042F5E70348E1
:104FC0000EF054FB02480EF051FBC046BC300310FB
:104FD000D4300310F0B5D6464F46464605008A4603
:104FE000C0B5002805D146E02D68DB1B9BB2002D23
:104FF00041D06F89BB42F7D22989981881468142F6
:1050000039DB9F4240D96868C018FB1A9A422EDDEE
:105010009BB21A005146984610F034FB4B46DF1BFA
:10502000BBB29946002B1CD02F68002F29D03B899A
:105030004B4520D34E46002401E0002F1ED07D8931
:10504000B54200D935004346191978682A00514401
:1050500010F018FB761B3F686419002EEDD1A145B6
:1050600015D10020E0BCBA46B146A846F0BD514675
:1050700010F008FBF5E701204042F3E705480EF089
:10508000F5FA10204042EDE703480EF0EFFA03482E
:105090000EF0ECFABC300310EC300310D4300310E7
:1050A0000B0070B5150011891A00FFF755FC041E9E
:1050B00006D0002329002A89FFF71EFE002801D10F
:1050C000200070BD01480EF0D1FAC0460431031033
:1050D000002805D109E00068C91A89B2002805D066
:1050E00043898B42F7D94368585C70470020FCE73E
:1050F000002805D10DE00068C91A89B2002805D042
:1051000043898B42F7D94368585C7047012040427D
:10511000FBE70138F9E7C04605E043898B4205D833
:10512000C91A006889B20028F7D1704743685A54F9
:10513000FBE7C046F0B5DE46454657464E4680463C
:10514000E0B5514F83B03968786909F05DFA43469C
:105150005A684E4B557A1C689B46002C00D18EE055
:10516000002843D13C2300269946844604E0E368A6
:105170002600002B32D01C00237CAB42F7D1217AD1
:10518000002906D048467B681B5C0133DBB299429C
:10519000EDD12368002B02D079698B42E7D1012140
:1051A000637C194203D061683B699942DFD163692E
:1051B0009A46002BDBD0019221004246A069344B75
:1051C000D047002850D143465A68019B934258D19A
:1051D00002239C46E3682600002BCCD1604603B036
:1051E000F0BCBB46B246A946A046F0BD0020012354
:1051F00000269A46019004E0E3682600002B31D097
:105200001C00237CAB42F7D1217A002908D07B68AF
:105210009C463C236046C35C0133DBB29942EBD130
:105220002368002BE8D15146637C194203D06168A2
:105230003B699942E0D163699946002BDCD0019229
:1052400021004246A069124BC84700280CD14346B2
:105250005A68019B9A4214D102230193E368260005
:10526000002BCDD10198BAE7002E06D0E368F36099
:105270005B461B68E3605B461C600120AFE70020D3
:10528000ADE704480EF0F2F99C3D002084D80020E0
:10529000AC3D00201831031010B5002811D0026871
:1052A000002A0ED000290CD00B68002B09D0094B26
:1052B0001B68002B05D01C68944203D0DB68002BD0
:1052C000F9D110BD0A681A60DB68002BF9D00268BA
:1052D000F1E7C04684D800207047C04610B50520CD
:1052E000FFF7A8F8041E03D02C22002110F0C4F907
:1052F000200010BD10B5041E0AD00368002B03D097
:105300005B6C002B00D0984721000520FFF7B2F816
:1053100010BDC046002800D081607047002800D032
:1053200001617047002800D081617047002800D0DB
:10533000C161704710B500280AD028230162C25409
:105340000368002B04D01B68002B01D01100984784
:1053500010BDC046002800D04162704710B500283B
:1053600006D00368002B03D05B68002B00D0984761
:1053700010BDC04610B5002807D00368002B04D02C
:105380009B68002B01D0984710BD06204042FBE7E8
:1053900010B5002807D00468002C04D0E468002C65
:1053A00001D0A04710BD06204042FBE7030010B526
:1053B000002808D00068002804D00469002C02D01E
:1053C0001800A04710BD0020FCE7C04610B500281B
:1053D00006D00368002B03D05B69002B00D09847F0
:1053E00010BDC04610B5002807D00368002B04D0BC
:1053F0009B69002B01D0984710BD06204042FBE777
:1054000010B5002807D00468002C04D0246A002CB2
:1054100001D0A04710BD06204042FBE710B5002890
:1054200007D00368002B04D05B6A002B01D098479B
:1054300010BD06204042FBE7030010B5002809D04C
:105440000268002A06D0926A0020002A03D01800C1
:10545000904700E0002010BD030010B5002809D0DF
:105460000268002A06D0D26A0020002A03D0180061
:10547000904700E0002010BD10B500280AD0406819
:10548000002807D00368002B04D09B68002B01D0B4
:10549000984710BD06204042FBE7C04610B50028E3
:1054A00016D000290AD14068002811D00368002BCB
:1054B0000ED0DB69002B0BD0984710BD002AF2D02C
:1054C0000368002BEFD09B69002BECD09847F4E7E2
:1054D00006204042F1E7C04610B500280AD04068D7
:1054E000002807D00368002B04D05B6A002B01D092
:1054F000984710BD06204042FBE7C04610B5002883
:105500000CD043680020002B07D01A68002A04D072
:10551000D26A002A01D01800904710BD0020FCE795
:1055200010B500280CD043680020002B07D01A6863
:10553000002A04D0126B002A01D01800904710BD39
:105540000020FCE710B5002809D04068002806D0EC
:105550000368002B03D05B6B002B00D0984710BD75
:1055600010B5002809D04068002806D00368002B39
:1055700003D09B6B002B00D0984710BD10B50028BE
:105580000CD043680020002B07D01A68002A04D0F2
:10559000D26B002A01D01800904710BD0020FCE714
:1055A00010B5002809D04068002806D00368002BF9
:1055B00003D01B6C002B00D0984710BD10B50028FD
:1055C0000AD04068002807D00468002C04D0A46CDE
:1055D000002C01D0A04710BD06204042FBE7C0468A
:1055E00010B500280AD04068002806D00368002BB8
:1055F00004D0DB6C002B01D0984710BD0020FCE7E5
:1056000010B500280CD043680020002B07D01A6882
:10561000002A04D0126D002A01D01800904710BD56
:105620000020FCE710B5002809D04068002806D00B
:105630000368002B03D05B6D002B00D0984710BD92
:1056400010B5002809D04068002806D00468002C56
:1056500003D0A46D002C00D0A04710BD70B505008C
:10566000080000F0CFFA041E07D00100280012F055
:10567000EDFF051E03D0280070BD0025FBE72000CC
:10568000FFF7B0FEF7E7C04610B5041E09D00023AF
:10569000C360436A002B01D0806898472000FFF761
:1056A00029FE10BD10B5002809D04268C368002A41
:1056B00009D1002B03D0002903D0D88A00E00020B4
:1056C00010BD188BFCE701480DF0D0FF64310310CA
:1056D000030010B500280AD05B68C068002B08D111
:1056E000002801D0002900D010BD0430FCE70020C4
:1056F000FAE701480DF0BAFF6431031010B5002835
:1057000009D0C368002B06D04268002A05D1588B07
:105710004006C00F00E0002010BD01480DF0A6FFBC
:105720006431031010B5002806D04368002B05D162
:105730006623C268D05A10BD0020FCE701480DF076
:1057400095FFC0466431031010B5002806D04368A9
:10575000002B05D16423C268D05A10BD0020FCE79D
:1057600001480DF083FFC0466431031010B50028D6
:1057700005D04368002B04D1C368588E10BD0020AB
:10578000FCE701480DF072FF6431031010B5041EF0
:1057900006D06468C068002C05D101F0ABFD10BDD7
:1057A00006204042FBE701480DF060FF6431031022
:1057B00010B5002806D04368002B06D1C06804F05D
:1057C00017FB10BD06204042FBE701480DF04EFFDD
:1057D0006431031010B5002806D04468002C06D1AF
:1057E000C06803F0EBFC10BD06204042FBE7014817
:1057F0000DF03CFF6431031010B5002806D043685B
:10580000002B06D1C06801F01FFB10BD06204042EE
:10581000FBE701480DF02AFF6431031010B5041EA8
:105820000DD04368002B0CD1C06800F03FFB00286E
:1058300005D0E060044900F0E7FF200010BD002023
:10584000FCE702480DF012FF955B00106431031075
:1058500010B5002808D04468002C08D14361054BDE
:10586000C06800F0F1FB10BD06204042FBE7024893
:105870000DF0FCFE5D5A00106431031010B50028D5
:1058800006D04368002B06D1C06800F095FA10BD21
:1058900006204042FBE701480DF0E8FE64310310AA
:1058A000F8B5041E49D04368002B49D1C568002DC6
:1058B0000ED08C2300212800EF5800F077FF2B7DBD
:1058C000012B0BD1280001F0E7FB061E1CD1E06084
:1058D0002000FFF70FFD00263000F8BD0021280052
:1058E00000F068FF0021280000F072FF002128006E
:1058F00000F07CFF002128006A7F00F08DFF280067
:1059000001F0CAFB061EE2D02100280000F04EFF85
:105910002B7D012B0BD028000B4900F04BFF2800FA
:105920000A4900F055FF2800094900F05FFF3900DF
:1059300028006A7F00F070FFCEE706267642CBE7AC
:1059400004480DF093FEC046D55A00105959001076
:105950008956001064310310030010B500280DD0E3
:10596000C06888420FD15968002909D1DC6900203C
:10597000002C02D019009868A04710BD0020FCE759
:1059800002480DF073FE02480DF070FE6431031002
:105990008031031010B501480DF068FE643103102A
:1059A00070B5002818D0C468002C15D040680028B5
:1059B00013D10825607A28436072002900D1084974
:1059C00094202150002A00D1064A98216250002BD1
:1059D00000D109339C22A35070BDFFF7DBFFC04606
:1059E00000DD6D00F824010010B5002809D0C3685F
:1059F000002B06D04268002A04D108215A7A8A4333
:105A00005A7210BDFFF7C6FF436810B5002B00D1D6
:105A100010BD01480DF02AFE6431031010B50028B6
:105A200009D0C368002B06D04268002A04D1402167
:105A30005A8B8A435A8310BDFFF7ACFF10B500287C
:105A400009D0C368002B06D04268002A04D1402147
:105A50005A8B0A435A8310BDFFF79CFF030010B511
:105A600000280DD0C06888420FD15968002909D19B
:105A70005C690020002C02D019009868A04710BD76
:105A80000020FCE702480DF0F1FD02480DF0EEFDAC
:105A90006431031080310310030010B500280DD0CD
:105AA000C2688A420FD14268002A09D1026A0020E6
:105AB000002A02D019009868904710BD0020FCE72A
:105AC00002480DF0D3FD02480DF0D0FD6431031003
:105AD0008031031070B5041E0CD0C068884213D109
